{
  "_format": "hh-sol-artifact-1",
  "contractName": "NFTMarketplace",
  "sourceName": "contracts/NFTMarketplace.sol",
  "abi": [
    {
      "inputs": [],
      "stateMutability": "nonpayable",
      "type": "constructor"
    },
    {
      "anonymous": false,
      "inputs": [
        {
          "indexed": true,
          "internalType": "address",
          "name": "owner",
          "type": "address"
        },
        {
          "indexed": true,
          "internalType": "address",
          "name": "approved",
          "type": "address"
        },
        {
          "indexed": true,
          "internalType": "uint256",
          "name": "tokenId",
          "type": "uint256"
        }
      ],
      "name": "Approval",
      "type": "event"
    },
    {
      "anonymous": false,
      "inputs": [
        {
          "indexed": true,
          "internalType": "address",
          "name": "owner",
          "type": "address"
        },
        {
          "indexed": true,
          "internalType": "address",
          "name": "operator",
          "type": "address"
        },
        {
          "indexed": false,
          "internalType": "bool",
          "name": "approved",
          "type": "bool"
        }
      ],
      "name": "ApprovalForAll",
      "type": "event"
    },
    {
      "anonymous": false,
      "inputs": [
        {
          "indexed": true,
          "internalType": "uint256",
          "name": "tokenId",
          "type": "uint256"
        },
        {
          "indexed": false,
          "internalType": "address",
          "name": "owner",
          "type": "address"
        },
        {
          "indexed": false,
          "internalType": "address",
          "name": "seller",
          "type": "address"
        },
        {
          "indexed": false,
          "internalType": "uint256",
          "name": "price",
          "type": "uint256"
        },
        {
          "indexed": false,
          "internalType": "bool",
          "name": "currentlyListed",
          "type": "bool"
        }
      ],
      "name": "TokenListedSuccess",
      "type": "event"
    },
    {
      "anonymous": false,
      "inputs": [
        {
          "indexed": true,
          "internalType": "address",
          "name": "from",
          "type": "address"
        },
        {
          "indexed": true,
          "internalType": "address",
          "name": "to",
          "type": "address"
        },
        {
          "indexed": true,
          "internalType": "uint256",
          "name": "tokenId",
          "type": "uint256"
        }
      ],
      "name": "Transfer",
      "type": "event"
    },
    {
      "inputs": [
        {
          "internalType": "address",
          "name": "to",
          "type": "address"
        },
        {
          "internalType": "uint256",
          "name": "tokenId",
          "type": "uint256"
        }
      ],
      "name": "approve",
      "outputs": [],
      "stateMutability": "nonpayable",
      "type": "function"
    },
    {
      "inputs": [
        {
          "internalType": "address",
          "name": "owner",
          "type": "address"
        }
      ],
      "name": "balanceOf",
      "outputs": [
        {
          "internalType": "uint256",
          "name": "",
          "type": "uint256"
        }
      ],
      "stateMutability": "view",
      "type": "function"
    },
    {
      "inputs": [
        {
          "internalType": "string",
          "name": "tokenURI",
          "type": "string"
        },
        {
          "internalType": "uint256",
          "name": "price",
          "type": "uint256"
        }
      ],
      "name": "createToken",
      "outputs": [
        {
          "internalType": "uint256",
          "name": "",
          "type": "uint256"
        }
      ],
      "stateMutability": "payable",
      "type": "function"
    },
    {
      "inputs": [
        {
          "internalType": "uint256",
          "name": "tokenId",
          "type": "uint256"
        }
      ],
      "name": "executeSale",
      "outputs": [],
      "stateMutability": "payable",
      "type": "function"
    },
    {
      "inputs": [],
      "name": "getALLNFTs",
      "outputs": [
        {
          "components": [
            {
              "internalType": "uint256",
              "name": "tokenIdm",
              "type": "uint256"
            },
            {
              "internalType": "address payable",
              "name": "owner",
              "type": "address"
            },
            {
              "internalType": "address payable",
              "name": "seller",
              "type": "address"
            },
            {
              "internalType": "uint256",
              "name": "price",
              "type": "uint256"
            },
            {
              "internalType": "bool",
              "name": "currentlyListed",
              "type": "bool"
            }
          ],
          "internalType": "struct NFTMarketplace.ListedToken[]",
          "name": "",
          "type": "tuple[]"
        }
      ],
      "stateMutability": "view",
      "type": "function"
    },
    {
      "inputs": [
        {
          "internalType": "uint256",
          "name": "tokenId",
          "type": "uint256"
        }
      ],
      "name": "getApproved",
      "outputs": [
        {
          "internalType": "address",
          "name": "",
          "type": "address"
        }
      ],
      "stateMutability": "view",
      "type": "function"
    },
    {
      "inputs": [],
      "name": "getCurrentToken",
      "outputs": [
        {
          "internalType": "uint256",
          "name": "",
          "type": "uint256"
        }
      ],
      "stateMutability": "view",
      "type": "function"
    },
    {
      "inputs": [],
      "name": "getLatestIdtoListedToken",
      "outputs": [
        {
          "components": [
            {
              "internalType": "uint256",
              "name": "tokenIdm",
              "type": "uint256"
            },
            {
              "internalType": "address payable",
              "name": "owner",
              "type": "address"
            },
            {
              "internalType": "address payable",
              "name": "seller",
              "type": "address"
            },
            {
              "internalType": "uint256",
              "name": "price",
              "type": "uint256"
            },
            {
              "internalType": "bool",
              "name": "currentlyListed",
              "type": "bool"
            }
          ],
          "internalType": "struct NFTMarketplace.ListedToken",
          "name": "",
          "type": "tuple"
        }
      ],
      "stateMutability": "view",
      "type": "function"
    },
    {
      "inputs": [
        {
          "internalType": "uint256",
          "name": "tokenId",
          "type": "uint256"
        }
      ],
      "name": "getLatestIdtoListedTokenId",
      "outputs": [
        {
          "components": [
            {
              "internalType": "uint256",
              "name": "tokenIdm",
              "type": "uint256"
            },
            {
              "internalType": "address payable",
              "name": "owner",
              "type": "address"
            },
            {
              "internalType": "address payable",
              "name": "seller",
              "type": "address"
            },
            {
              "internalType": "uint256",
              "name": "price",
              "type": "uint256"
            },
            {
              "internalType": "bool",
              "name": "currentlyListed",
              "type": "bool"
            }
          ],
          "internalType": "struct NFTMarketplace.ListedToken",
          "name": "",
          "type": "tuple"
        }
      ],
      "stateMutability": "view",
      "type": "function"
    },
    {
      "inputs": [],
      "name": "getMyNfts",
      "outputs": [
        {
          "components": [
            {
              "internalType": "uint256",
              "name": "tokenIdm",
              "type": "uint256"
            },
            {
              "internalType": "address payable",
              "name": "owner",
              "type": "address"
            },
            {
              "internalType": "address payable",
              "name": "seller",
              "type": "address"
            },
            {
              "internalType": "uint256",
              "name": "price",
              "type": "uint256"
            },
            {
              "internalType": "bool",
              "name": "currentlyListed",
              "type": "bool"
            }
          ],
          "internalType": "struct NFTMarketplace.ListedToken[]",
          "name": "",
          "type": "tuple[]"
        }
      ],
      "stateMutability": "view",
      "type": "function"
    },
    {
      "inputs": [
        {
          "internalType": "address",
          "name": "owner",
          "type": "address"
        },
        {
          "internalType": "address",
          "name": "operator",
          "type": "address"
        }
      ],
      "name": "isApprovedForAll",
      "outputs": [
        {
          "internalType": "bool",
          "name": "",
          "type": "bool"
        }
      ],
      "stateMutability": "view",
      "type": "function"
    },
    {
      "inputs": [],
      "name": "name",
      "outputs": [
        {
          "internalType": "string",
          "name": "",
          "type": "string"
        }
      ],
      "stateMutability": "view",
      "type": "function"
    },
    {
      "inputs": [
        {
          "internalType": "uint256",
          "name": "tokenId",
          "type": "uint256"
        }
      ],
      "name": "ownerOf",
      "outputs": [
        {
          "internalType": "address",
          "name": "",
          "type": "address"
        }
      ],
      "stateMutability": "view",
      "type": "function"
    },
    {
      "inputs": [
        {
          "internalType": "address",
          "name": "from",
          "type": "address"
        },
        {
          "internalType": "address",
          "name": "to",
          "type": "address"
        },
        {
          "internalType": "uint256",
          "name": "tokenId",
          "type": "uint256"
        }
      ],
      "name": "safeTransferFrom",
      "outputs": [],
      "stateMutability": "nonpayable",
      "type": "function"
    },
    {
      "inputs": [
        {
          "internalType": "address",
          "name": "from",
          "type": "address"
        },
        {
          "internalType": "address",
          "name": "to",
          "type": "address"
        },
        {
          "internalType": "uint256",
          "name": "tokenId",
          "type": "uint256"
        },
        {
          "internalType": "bytes",
          "name": "data",
          "type": "bytes"
        }
      ],
      "name": "safeTransferFrom",
      "outputs": [],
      "stateMutability": "nonpayable",
      "type": "function"
    },
    {
      "inputs": [
        {
          "internalType": "address",
          "name": "operator",
          "type": "address"
        },
        {
          "internalType": "bool",
          "name": "approved",
          "type": "bool"
        }
      ],
      "name": "setApprovalForAll",
      "outputs": [],
      "stateMutability": "nonpayable",
      "type": "function"
    },
    {
      "inputs": [
        {
          "internalType": "bytes4",
          "name": "interfaceId",
          "type": "bytes4"
        }
      ],
      "name": "supportsInterface",
      "outputs": [
        {
          "internalType": "bool",
          "name": "",
          "type": "bool"
        }
      ],
      "stateMutability": "view",
      "type": "function"
    },
    {
      "inputs": [],
      "name": "symbol",
      "outputs": [
        {
          "internalType": "string",
          "name": "",
          "type": "string"
        }
      ],
      "stateMutability": "view",
      "type": "function"
    },
    {
      "inputs": [
        {
          "internalType": "uint256",
          "name": "tokenId",
          "type": "uint256"
        }
      ],
      "name": "tokenURI",
      "outputs": [
        {
          "internalType": "string",
          "name": "",
          "type": "string"
        }
      ],
      "stateMutability": "view",
      "type": "function"
    },
    {
      "inputs": [
        {
          "internalType": "address",
          "name": "from",
          "type": "address"
        },
        {
          "internalType": "address",
          "name": "to",
          "type": "address"
        },
        {
          "internalType": "uint256",
          "name": "tokenId",
          "type": "uint256"
        }
      ],
      "name": "transferFrom",
      "outputs": [],
      "stateMutability": "nonpayable",
      "type": "function"
    },
    {
      "inputs": [
        {
          "internalType": "uint256",
          "name": "_listPrice",
          "type": "uint256"
        }
      ],
      "name": "updatedListPrice",
      "outputs": [],
      "stateMutability": "payable",
      "type": "function"
    }
  ],
  "bytecode": "0x6080604052662386f26fc10000600a553480156200001c57600080fd5b50604080518082018252600e81526d4e46544d41726b6574706c61636560901b6020808301918252835180850190945260048452634e46544d60e01b9084015281519192916200006f91600091620000a0565b50805162000085906001906020840190620000a0565b5050600780546001600160a01b031916331790555062000183565b828054620000ae9062000146565b90600052602060002090601f016020900481019282620000d257600085556200011d565b82601f10620000ed57805160ff19168380011785556200011d565b828001600101855582156200011d579182015b828111156200011d57825182559160200191906001019062000100565b506200012b9291506200012f565b5090565b5b808211156200012b576000815560010162000130565b600181811c908216806200015b57607f821691505b602082108114156200017d57634e487b7160e01b600052602260045260246000fd5b50919050565b611fe980620001936000396000f3fe60806040526004361061012a5760003560e01c806370a08231116100ab578063a2899d631161006f578063a2899d631461032d578063a4f0c3cf14610342578063b88d4fde14610355578063c87b56dd14610375578063e985e9c514610395578063ef2d1746146103de57600080fd5b806370a08231146102a457806372b3b620146102d257806395d89b41146102e55780639b1225c4146102fa578063a22cb4651461030d57600080fd5b8063095ea7b3116100f2578063095ea7b3146102025780630ffce0101461022457806323b872dd1461024457806342842e0e146102645780636352211e1461028457600080fd5b806301ffc9a71461012f578063047b07bf14610164578063066937711461018657806306fdde03146101a8578063081812fc146101ca575b600080fd5b34801561013b57600080fd5b5061014f61014a366004611bf5565b6103f3565b60405190151581526020015b60405180910390f35b34801561017057600080fd5b50610179610445565b60405161015b9190611d73565b34801561019257600080fd5b5061019b61068a565b60405161015b9190611e74565b3480156101b457600080fd5b506101bd610701565b60405161015b9190611dc1565b3480156101d657600080fd5b506101ea6101e5366004611c83565b610793565b6040516001600160a01b03909116815260200161015b565b34801561020e57600080fd5b5061022261021d366004611bcc565b6107ba565b005b34801561023057600080fd5b5061019b61023f366004611c83565b6108d5565b34801561025057600080fd5b5061022261025f366004611ade565b61093f565b34801561027057600080fd5b5061022261027f366004611ade565b610970565b34801561029057600080fd5b506101ea61029f366004611c83565b61098b565b3480156102b057600080fd5b506102c46102bf366004611a92565b6109eb565b60405190815260200161015b565b6102c46102e0366004611c2d565b610a71565b3480156102f157600080fd5b506101bd610b5f565b610222610308366004611c83565b610b6e565b34801561031957600080fd5b50610222610328366004611b92565b610ccc565b34801561033957600080fd5b50610179610cdb565b610222610350366004611c83565b610e22565b34801561036157600080fd5b50610222610370366004611b19565b610e9a565b34801561038157600080fd5b506101bd610390366004611c83565b610ecc565b3480156103a157600080fd5b5061014f6103b0366004611aac565b6001600160a01b03918216600090815260056020908152604080832093909416825291909152205460ff1690565b3480156103ea57600080fd5b506102c4610fdd565b60006001600160e01b031982166380ac58cd60e01b148061042457506001600160e01b03198216635b5e139f60e01b145b8061043f57506301ffc9a760e01b6001600160e01b03198316145b92915050565b6060600061045260085490565b905060008060005b838110156104ea5733600b6000610472846001611e82565b81526020810191909152604001600020600101546001600160a01b031614806104c5575033600b60006104a6846001611e82565b81526020810191909152604001600020600201546001600160a01b0316145b156104d8576104d5600184611e82565b92505b806104e281611f2c565b91505061045a565b5060008267ffffffffffffffff81111561051457634e487b7160e01b600052604160045260246000fd5b60405190808252806020026020018201604052801561054d57816020015b61053a611939565b8152602001906001900390816105325790505b50905060005b848110156106815733600b600061056b846001611e82565b81526020810191909152604001600020600101546001600160a01b031614806105be575033600b600061059f846001611e82565b81526020810191909152604001600020600201546001600160a01b0316145b1561066f5760006105d0826001611e82565b6000818152600b6020908152604091829020825160a0810184528154815260018201546001600160a01b039081169382019390935260028201549092169282019290925260038201546060820152600482015460ff16151560808201528551929350909185908790811061065457634e487b7160e01b600052603260045260246000fd5b602090810291909101015261066a600186611e82565b945050505b8061067981611f2c565b915050610553565b50949350505050565b610692611939565b600061069d60085490565b6000908152600b6020908152604091829020825160a0810184528154815260018201546001600160a01b03908116938201939093526002820154909216928201929092526003820154606082015260049091015460ff161515608082015292915050565b60606000805461071090611ef1565b80601f016020809104026020016040519081016040528092919081815260200182805461073c90611ef1565b80156107895780601f1061075e57610100808354040283529160200191610789565b820191906000526020600020905b81548152906001019060200180831161076c57829003601f168201915b5050505050905090565b600061079e82610fed565b506000908152600460205260409020546001600160a01b031690565b60006107c58261098b565b9050806001600160a01b0316836001600160a01b031614156108385760405162461bcd60e51b815260206004820152602160248201527f4552433732313a20617070726f76616c20746f2063757272656e74206f776e656044820152603960f91b60648201526084015b60405180910390fd5b336001600160a01b0382161480610854575061085481336103b0565b6108c65760405162461bcd60e51b815260206004820152603e60248201527f4552433732313a20617070726f76652063616c6c6572206973206e6f7420746f60448201527f6b656e206f776e6572206e6f7220617070726f76656420666f7220616c6c0000606482015260840161082f565b6108d0838361104f565b505050565b6108dd611939565b506000908152600b6020908152604091829020825160a0810184528154815260018201546001600160a01b03908116938201939093526002820154909216928201929092526003820154606082015260049091015460ff161515608082015290565b61094933826110bd565b6109655760405162461bcd60e51b815260040161082f90611e26565b6108d083838361113b565b6108d083838360405180602001604052806000815250610e9a565b6000818152600260205260408120546001600160a01b03168061043f5760405162461bcd60e51b8152602060048201526018602482015277115490cdcc8c4e881a5b9d985b1a59081d1bdad95b88125160421b604482015260640161082f565b60006001600160a01b038216610a555760405162461bcd60e51b815260206004820152602960248201527f4552433732313a2061646472657373207a65726f206973206e6f7420612076616044820152683634b21037bbb732b960b91b606482015260840161082f565b506001600160a01b031660009081526003602052604090205490565b6000600a543414610ac45760405162461bcd60e51b815260206004820152601960248201527f53656e6420656e6f75676820657468657220746f206c69737400000000000000604482015260640161082f565b60008211610b1f5760405162461bcd60e51b815260206004820152602260248201527f4d616b652073757265207468652070726963652069736e2774206e6567617469604482015261766560f01b606482015260840161082f565b610b2d600880546001019055565b6000610b3860085490565b9050610b4433826112d7565b610b4e81856112f1565b610b58818461138b565b9392505050565b60606001805461071090611ef1565b6000818152600b6020526040902060030154348114610bf55760405162461bcd60e51b815260206004820152603a60248201527f506c65617365207375626d6974207468652061736b696e6720666f722074686560448201527f204e465420696e206f7264657220746f20707572636861736520000000000000606482015260840161082f565b6000828152600b602052604090206002810180546004909201805460ff191660011790556001600160a01b03198216331790556001600160a01b0316610c3f600980546001019055565b610c4a30338561113b565b610c5430846107ba565b600754600a546040516001600160a01b039092169181156108fc0291906000818181858888f19350505050158015610c90573d6000803e3d6000fd5b506040516001600160a01b038216903480156108fc02916000818181858888f19350505050158015610cc6573d6000803e3d6000fd5b50505050565b610cd7338383611428565b5050565b60606000610ce860085490565b905060008167ffffffffffffffff811115610d1357634e487b7160e01b600052604160045260246000fd5b604051908082528060200260200182016040528015610d4c57816020015b610d39611939565b815260200190600190039081610d315790505b5090506000805b83811015610e19576000610d68826001611e82565b6000818152600b6020908152604091829020825160a0810184528154815260018201546001600160a01b039081169382019390935260028201549092169282019290925260038201546060820152600482015460ff161515608082015286519293509091869086908110610dec57634e487b7160e01b600052603260045260246000fd5b6020908102919091010152610e02600185611e82565b935050508080610e1190611f2c565b915050610d53565b50909392505050565b6007546001600160a01b03163314610e8c5760405162461bcd60e51b815260206004820152602760248201527f4f6e6c79206f776e65722063616e2075706461746520746865206c697374696e6044820152666720707269636560c81b606482015260840161082f565b80600a54610cd79190611eae565b610ea433836110bd565b610ec05760405162461bcd60e51b815260040161082f90611e26565b610cc6848484846114f7565b6060610ed782610fed565b60008281526006602052604081208054610ef090611ef1565b80601f0160208091040260200160405190810160405280929190818152602001828054610f1c90611ef1565b8015610f695780601f10610f3e57610100808354040283529160200191610f69565b820191906000526020600020905b815481529060010190602001808311610f4c57829003601f168201915b505050505090506000610f8760408051602081019091526000815290565b9050805160001415610f9a575092915050565b815115610fcc578082604051602001610fb4929190611d07565b60405160208183030381529060405292505050919050565b610fd58461152a565b949350505050565b6000610fe860085490565b905090565b6000818152600260205260409020546001600160a01b031661104c5760405162461bcd60e51b8152602060048201526018602482015277115490cdcc8c4e881a5b9d985b1a59081d1bdad95b88125160421b604482015260640161082f565b50565b600081815260046020526040902080546001600160a01b0319166001600160a01b03841690811790915581906110848261098b565b6001600160a01b03167f8c5be1e5ebec7d5bd14f71427d1e84f3dd0314c0f7b2291e5b200ac8c7c3b92560405160405180910390a45050565b6000806110c98361098b565b9050806001600160a01b0316846001600160a01b0316148061111057506001600160a01b0380821660009081526005602090815260408083209388168352929052205460ff165b80610fd55750836001600160a01b031661112984610793565b6001600160a01b031614949350505050565b826001600160a01b031661114e8261098b565b6001600160a01b0316146111b25760405162461bcd60e51b815260206004820152602560248201527f4552433732313a207472616e736665722066726f6d20696e636f72726563742060448201526437bbb732b960d91b606482015260840161082f565b6001600160a01b0382166112145760405162461bcd60e51b8152602060048201526024808201527f4552433732313a207472616e7366657220746f20746865207a65726f206164646044820152637265737360e01b606482015260840161082f565b61121f60008261104f565b6001600160a01b0383166000908152600360205260408120805460019290611248908490611eae565b90915550506001600160a01b0382166000908152600360205260408120805460019290611276908490611e82565b909155505060008181526002602052604080822080546001600160a01b0319166001600160a01b0386811691821790925591518493918716917fddf252ad1be2c89b69c2b068fc378daa952ba7f163c4a11628f55a4df523b3ef91a4505050565b610cd782826040518060200160405280600081525061159d565b6000828152600260205260409020546001600160a01b031661136c5760405162461bcd60e51b815260206004820152602e60248201527f45524337323155524953746f726167653a2055524920736574206f66206e6f6e60448201526d32bc34b9ba32b73a103a37b5b2b760911b606482015260840161082f565b600082815260066020908152604090912082516108d092840190611967565b6040805160a081018252838152306020808301828152338486018181526060860188815260016080880181815260008c8152600b9097529890952096518755925193860180546001600160a01b039586166001600160a01b03199182161790915590516002870180549190951691161790925551600384015592516004909201805492151560ff1990931692909217909155610cd791908461113b565b816001600160a01b0316836001600160a01b0316141561148a5760405162461bcd60e51b815260206004820152601960248201527f4552433732313a20617070726f766520746f2063616c6c657200000000000000604482015260640161082f565b6001600160a01b03838116600081815260056020908152604080832094871680845294825291829020805460ff191686151590811790915591519182527f17307eab39ab6107e8899845ad3d59bd9653f200f220920489ca2b5937696c31910160405180910390a3505050565b61150284848461113b565b61150e848484846115d0565b610cc65760405162461bcd60e51b815260040161082f90611dd4565b606061153582610fed565b600061154c60408051602081019091526000815290565b9050600081511161156c5760405180602001604052806000815250610b58565b80611576846116dd565b604051602001611587929190611d07565b6040516020818303038152906040529392505050565b6115a783836117f7565b6115b460008484846115d0565b6108d05760405162461bcd60e51b815260040161082f90611dd4565b60006001600160a01b0384163b156116d257604051630a85bd0160e11b81526001600160a01b0385169063150b7a0290611614903390899088908890600401611d36565b602060405180830381600087803b15801561162e57600080fd5b505af192505050801561165e575060408051601f3d908101601f1916820190925261165b91810190611c11565b60015b6116b8573d80801561168c576040519150601f19603f3d011682016040523d82523d6000602084013e611691565b606091505b5080516116b05760405162461bcd60e51b815260040161082f90611dd4565b805181602001fd5b6001600160e01b031916630a85bd0160e11b149050610fd5565b506001949350505050565b6060816117015750506040805180820190915260018152600360fc1b602082015290565b8160005b811561172b578061171581611f2c565b91506117249050600a83611e9a565b9150611705565b60008167ffffffffffffffff81111561175457634e487b7160e01b600052604160045260246000fd5b6040519080825280601f01601f19166020018201604052801561177e576020820181803683370190505b5090505b8415610fd557611793600183611eae565b91506117a0600a86611f47565b6117ab906030611e82565b60f81b8183815181106117ce57634e487b7160e01b600052603260045260246000fd5b60200101906001600160f81b031916908160001a9053506117f0600a86611e9a565b9450611782565b6001600160a01b03821661184d5760405162461bcd60e51b815260206004820181905260248201527f4552433732313a206d696e7420746f20746865207a65726f2061646472657373604482015260640161082f565b6000818152600260205260409020546001600160a01b0316156118b25760405162461bcd60e51b815260206004820152601c60248201527f4552433732313a20746f6b656e20616c7265616479206d696e74656400000000604482015260640161082f565b6001600160a01b03821660009081526003602052604081208054600192906118db908490611e82565b909155505060008181526002602052604080822080546001600160a01b0319166001600160a01b03861690811790915590518392907fddf252ad1be2c89b69c2b068fc378daa952ba7f163c4a11628f55a4df523b3ef908290a45050565b6040805160a08101825260008082526020820181905291810182905260608101829052608081019190915290565b82805461197390611ef1565b90600052602060002090601f01602090048101928261199557600085556119db565b82601f106119ae57805160ff19168380011785556119db565b828001600101855582156119db579182015b828111156119db5782518255916020019190600101906119c0565b506119e79291506119eb565b5090565b5b808211156119e757600081556001016119ec565b600067ffffffffffffffff80841115611a1b57611a1b611f87565b604051601f8501601f19908116603f01168101908282118183101715611a4357611a43611f87565b81604052809350858152868686011115611a5c57600080fd5b858560208301376000602087830101525050509392505050565b80356001600160a01b0381168114611a8d57600080fd5b919050565b600060208284031215611aa3578081fd5b610b5882611a76565b60008060408385031215611abe578081fd5b611ac783611a76565b9150611ad560208401611a76565b90509250929050565b600080600060608486031215611af2578081fd5b611afb84611a76565b9250611b0960208501611a76565b9150604084013590509250925092565b60008060008060808587031215611b2e578081fd5b611b3785611a76565b9350611b4560208601611a76565b925060408501359150606085013567ffffffffffffffff811115611b67578182fd5b8501601f81018713611b77578182fd5b611b8687823560208401611a00565b91505092959194509250565b60008060408385031215611ba4578182fd5b611bad83611a76565b915060208301358015158114611bc1578182fd5b809150509250929050565b60008060408385031215611bde578182fd5b611be783611a76565b946020939093013593505050565b600060208284031215611c06578081fd5b8135610b5881611f9d565b600060208284031215611c22578081fd5b8151610b5881611f9d565b60008060408385031215611c3f578182fd5b823567ffffffffffffffff811115611c55578283fd5b8301601f81018513611c65578283fd5b611c7485823560208401611a00565b95602094909401359450505050565b600060208284031215611c94578081fd5b5035919050565b60008151808452611cb3816020860160208601611ec5565b601f01601f19169290920160200192915050565b805182526020808201516001600160a01b039081169184019190915260408083015190911690830152606080820151908301526080908101511515910152565b60008351611d19818460208801611ec5565b835190830190611d2d818360208801611ec5565b01949350505050565b6001600160a01b0385811682528416602082015260408101839052608060608201819052600090611d6990830184611c9b565b9695505050505050565b6020808252825182820181905260009190848201906040850190845b81811015611db557611da2838551611cc7565b9284019260a09290920191600101611d8f565b50909695505050505050565b602081526000610b586020830184611c9b565b60208082526032908201527f4552433732313a207472616e7366657220746f206e6f6e20455243373231526560408201527131b2b4bb32b91034b6b83632b6b2b73a32b960711b606082015260800190565b6020808252602e908201527f4552433732313a2063616c6c6572206973206e6f7420746f6b656e206f776e6560408201526d1c881b9bdc88185c1c1c9bdd995960921b606082015260800190565b60a0810161043f8284611cc7565b60008219821115611e9557611e95611f5b565b500190565b600082611ea957611ea9611f71565b500490565b600082821015611ec057611ec0611f5b565b500390565b60005b83811015611ee0578181015183820152602001611ec8565b83811115610cc65750506000910152565b600181811c90821680611f0557607f821691505b60208210811415611f2657634e487b7160e01b600052602260045260246000fd5b50919050565b6000600019821415611f4057611f40611f5b565b5060010190565b600082611f5657611f56611f71565b500690565b634e487b7160e01b600052601160045260246000fd5b634e487b7160e01b600052601260045260246000fd5b634e487b7160e01b600052604160045260246000fd5b6001600160e01b03198116811461104c57600080fdfea26469706673582212203e86d8cbc7a045ddeab97003c47568db2986bb7e5eaccd31e432020d9a3cff4d64736f6c63430008040033",
  "linkReferences": {},
  "deployedLinkReferences": {}
}